{
  "abi": [
    {
      "inputs": [
        {
          "internalType": "contract KingOfTheHill",
          "name": "_hill",
          "type": "address"
        }
      ],
      "stateMutability": "nonpayable",
      "type": "constructor"
    },
    {
      "stateMutability": "payable",
      "type": "fallback"
    },
    {
      "inputs": [],
      "name": "doBombedBid",
      "outputs": [],
      "stateMutability": "payable",
      "type": "function"
    },
    {
      "inputs": [],
      "name": "doMethodBidWithReturn",
      "outputs": [],
      "stateMutability": "payable",
      "type": "function"
    },
    {
      "inputs": [],
      "name": "doSafeBid",
      "outputs": [],
      "stateMutability": "payable",
      "type": "function"
    },
    {
      "inputs": [],
      "name": "receiveKingPayment",
      "outputs": [],
      "stateMutability": "payable",
      "type": "function"
    },
    {
      "inputs": [],
      "name": "receiveKingPaymentWithReturn",
      "outputs": [],
      "stateMutability": "payable",
      "type": "function"
    }
  ],
  "bytecode": {
    "object": "0x608060405234801561001057600080fd5b5060405161037f38038061037f83398101604081905261002f91610054565b600080546001600160a01b0319166001600160a01b0392909216919091179055610084565b60006020828403121561006657600080fd5b81516001600160a01b038116811461007d57600080fd5b9392505050565b6102ec806100936000396000f3fe60806040526004361061004a5760003560e01c80631c7f7d491461007757806382e74ad614610081578063b7c8878d14610077578063cc219da614610089578063f9efb8d414610091575b600061006d60025a61005c9190610264565b61006890610200610286565b610099565b9050602081026000f35b61007f6100f2565b005b61007f61015b565b61007f6101a9565b61007f6101fd565b60008060026100a98460016102a3565b6100b39190610264565b90508291505b818110156100ec579050806002816100d18186610264565b6100db91906102a3565b6100e59190610264565b90506100b9565b50919050565b60008054906101000a90046001600160a01b03166001600160a01b031663fcb50edc346040518263ffffffff1660e01b81526004016000604051808303818588803b15801561014057600080fd5b505af1158015610154573d6000803e3d6000fd5b5050505050565b60008054906101000a90046001600160a01b03166001600160a01b03166392ef5318346040518263ffffffff1660e01b81526004016000604051808303818588803b15801561014057600080fd5b6000546001600160a01b0316331461004a5760405162461bcd60e51b81526020600482015260126024820152714f6e6c792048696c6c2063616c6c6261636b60701b60448201526064015b60405180910390fd5b6000546001600160a01b0316331461024c5760405162461bcd60e51b81526020600482015260126024820152714f6e6c792048696c6c2063616c6c6261636b60701b60448201526064016101f4565b565b634e487b7160e01b600052601160045260246000fd5b60008261028157634e487b7160e01b600052601260045260246000fd5b500490565b808202811582820484141761029d5761029d61024e565b92915050565b8082018082111561029d5761029d61024e56fea2646970667358221220d11815d90bc7c5e0607d76cbe6cfc6ec7d120463f3641fb93bbc349cd7c12e7c64736f6c63430008110033",
    "linkReferences": {}
  },
  "methodIdentifiers": {
    "doBombedBid()": "1c7f7d49",
    "doMethodBidWithReturn()": "82e74ad6",
    "doSafeBid()": "b7c8878d",
    "receiveKingPayment()": "f9efb8d4",
    "receiveKingPaymentWithReturn()": "cc219da6"
  },
  "id": 14
}