{
  "abi": [
    {
      "inputs": [],
      "name": "bombedBid",
      "outputs": [],
      "stateMutability": "payable",
      "type": "function"
    },
    {
      "inputs": [],
      "name": "king",
      "outputs": [
        {
          "internalType": "address",
          "name": "",
          "type": "address"
        }
      ],
      "stateMutability": "view",
      "type": "function"
    },
    {
      "inputs": [],
      "name": "methodBidWithReturn",
      "outputs": [],
      "stateMutability": "payable",
      "type": "function"
    },
    {
      "inputs": [],
      "name": "safeBid",
      "outputs": [],
      "stateMutability": "payable",
      "type": "function"
    },
    {
      "inputs": [],
      "name": "topBid",
      "outputs": [
        {
          "internalType": "uint256",
          "name": "",
          "type": "uint256"
        }
      ],
      "stateMutability": "view",
      "type": "function"
    }
  ],
  "bytecode": {
    "object": "0x608060405234801561001057600080fd5b50610279806100206000396000f3fe60806040526004361061004a5760003560e01c806351c674521461004f578063636bf7301461005957806392ef531814610082578063cc181ca81461008a578063fcb50edc146100c2575b600080fd5b6100576100ca565b005b34801561006557600080fd5b5061006f60015481565b6040519081526020015b60405180910390f35b610057610154565b34801561009657600080fd5b506000546100aa906001600160a01b031681565b6040516001600160a01b039091168152602001610079565b6100576101c1565b60015434116100d857600080fd5b60008054600180546001600160a01b03198316331784553490915560408051633e7bee3560e21b815290516001600160a01b03909316939192849263f9efb8d49285926004808301939282900301818588803b15801561013757600080fd5b505af115801561014b573d6000803e3d6000fd5b50505050505050565b600154341161016257600080fd5b60008054600180546001600160a01b03198316331784553490915560408051636610ced360e11b815290516001600160a01b03909316939192849263cc219da69285926004808301939282900301818588803b15801561013757600080fd5b60015434116101cf57600080fd5b6000805460018054336001600160a01b03198416178455349091556040516001600160a01b03909216929091839183919081818185875af1925050503d8060008114610237576040519150601f19603f3d011682016040523d82523d6000602084013e61023c565b606091505b505050505056fea2646970667358221220f610ac479d59b0dcc1d9ae70269b8034ed7db91f121c9784c4e2eeeef5d46cec64736f6c63430008110033",
    "linkReferences": {}
  },
  "methodIdentifiers": {
    "bombedBid()": "fcb50edc",
    "king()": "cc181ca8",
    "methodBidWithReturn()": "92ef5318",
    "safeBid()": "51c67452",
    "topBid()": "636bf730"
  },
  "id": 14
}